:020000040040BA
:1000000000350020210840001D0840001D08400068
:100010001D0840001D0840001D08400000000000B1
:100020000000000000000000000000001D0840006B
:100030001D084000000000001D0840001D08400091
:100040001D0840001D0840001D0840001D0840001C
:100050001D0840001D0840001D0840001D0840000C
:100060001D0840001D084000000000004D06400033
:1000700061064000750640001D0840001D08400054
:1000800000000000000000001D0840001D084000A6
:100090001D0840001D0840001D0840001D084000CC
:1000A0001D0840001D0840001D0840001D084000BC
:1000B0001D0840001D0840001D0840001D084000AC
:1000C0001D0840001D0840001D08400010B5054CEB
:1000D000237833B9044B13B10448AFF300800123F4
:1000E000237010BD4404002000000000A00C40005C
:1000F0000C4B43B10C480D4910B5AFF300800C48D0
:10010000036823B910BD0A48036833B97047094B27
:10011000002BF7D0BDE810401847064B002BF5D058
:10012000184700BF00000000A00C40004804002059
:10013000A00C40000000000010B50E480E4B984780
:100140003E2100200D4B98470D4CA0470028FCD0C5
:100150000C4B98470C4A0D4B9A620D4CA047002857
:10016000FCD010200B4B98470B4B98470148024B93
:10017000984710BD000E2707DD094000ED0640003E
:100180004107400051074000013F132000040E408A
:100190006107400089064000CD08400038B54FF4A3
:1001A0000042464B5A600B20454CA0470C20A0470C
:1001B0000D20A0474FF060511320424CA0474FF054
:1001C00060511420A04740492320A0473F494C20BC
:1001D000A0474FF000624FF4C0613D483D4B984747
:1001E0004FF080510020A0474FF080510820A047D9
:1001F0004FF080515220A0474FF000610C20A047E3
:100200004FF000610D20A0474FF000610E20A04785
:100210004FF000610B20A0474FF000611520A04770
:100220004FF000611620A0474FF040511720A04723
:100230001720294B9847294D29464020A047294699
:100240004120A04729464220A04729464320A047F5
:1002500029464420A04729464520A0472946462054
:10026000A04729464720A04729464B20A0472946BA
:100270004820A04729464F20A04729465320A047A1
:100280004FF040514D20A04705F100552946102060
:10029000A04729461120A0474FF000610C20A0473D
:1002A0004FF000610D20A0474FF000610E20A047E5
:1002B0004FF000610B20A04738BD00BF50140E4026
:1002C00071074000ED034000790000285900002824
:1002D000000E0E400D054000D10340000100000853
:1002E0004264B1F1C05F39D013D8B1F1006F25D0AD
:1002F000B1F1805F0AD1036F13430367436F416F0E
:100300000B4023EA02034367426070470029FBD198
:100310007047B1F1205F20D009D8B1F1005FF3D16F
:10032000036F13430367436F13434367ECE7B1F174
:10033000405F12D0B1F1605F0FD0E5E710B4016FFC
:10034000046FD34321401C4619400167436F416F3E
:100350000B4023404367426010BC7047036F016F3E
:100360000B4023EA02030367436F13434367CBE762
:10037000416412F0010F14BF4166016612F00A0FCA
:1003800014BF0162416212F0020F07D112F0080F90
:1003900018BFC0F88410416101607047C0F8801038
:1003A000F9E710B4019C416444B9016643B10165A9
:1003B00042B941630161016010BC70474166F5E7D5
:1003C0004165F5E70163F5E7C06C7047806C7047E5
:1003D000430903F5001303F207735B0200F01F00EB
:1003E000012202FA00F058637047000070B582B035
:1003F0000D46430903F5001303F207735C0201F095
:10040000F043B3F1005F53D00AD8B3F1805F2DD031
:10041000B3F1C05F3BD0B3F1006F15D0002023E0F3
:10042000B3F1405F55D0B3F1605F52D0B3F1205FBC
:10043000F4D100F01F0101262A4606FA01F12046F8
:100440002F4B984730460FE000F01F0001268640F2
:1004500032464FF0006120462A4B984715F0010FB5
:1004600014BF66662666012002B070BD00F01F0052
:100470000126864032464FF080512046214B984756
:1004800015F0010F14BF666626660120ECE700F048
:100490001F000126864032464FF0C0512046194BBE
:1004A000984715F0010F14BF666626660120DBE74A
:1004B00000F01F000126864032464FF000512046D2
:1004C000104B984715F0010F14BF66662666012091
:1004D000CAE705F0605200F01F01012605EA060395
:1004E0000093C5F38003B2F1605F14BF00220122C4
:1004F00006FA01F12046044CA0473046B4E700BF9D
:1005000071034000E1024000A303400070B582B0D7
:1005100005460E46144602F0F043B3F1005F3DD0AD
:100520000AD8B3F1805F21D0B3F1C05F2AD0B3F114
:10053000006F0ED0002017E0B3F1405F3AD0B3F166
:10054000605F37D0B3F1205FF4D1234B984701208F
:100550000AE00A464FF00061204B984714F0010F63
:1005600014BF6E662E66012002B070BD0A464FF0C1
:1005700080511A4B984714F0010F14BF6E662E6617
:100580000120F1E70A464FF0C051144B984714F090
:10059000010F14BF6E662E660120E5E70A464FF094
:1005A00000510E4B984714F0010F14BF6E662E6673
:1005B0000120D9E704F0605204F001030093C4F372
:1005C0008003B2F1605F14BF002201223146284649
:1005D000034CA0470120C7E771034000E10240003F
:1005E000A30340002DE9F84381460F46124B98477C
:1005F00005464846114B9847054013D0104C04F16E
:10060000600603E0B4420DD010345DB12068B842FA
:10061000F8D161682942F5D0E3689847636825EA14
:100620000305EFE7074B1B6823B1074B1B680BB1B2
:1006300048469847BDE8F883C9034000CD03400011
:1006400060040020D4040020D004002008B50B2151
:100650000148024B984708BD000E0E40E5054000DA
:1006600008B50C210148024B984708BD00100E4008
:10067000E505400008B50D210148024B984708BD2B
:1006800000120E40E5054000174A136B23F070037B
:1006900018431063936E13F0080F0AD14FF40063F0
:1006A00011498A6E12F0080F03D1013BF9D10120E4
:1006B00070470D4A136B23F0030343F002031363E7
:1006C000936E13F0080F0AD14FF4006306498A6E47
:1006D00012F0080F05D1013BF9D10120704700202D
:1006E00070470020704700BF00040E40C8B9114A8F
:1006F000136A090289B223F45C1323F0030343F461
:100700005C1343F001030B431362936E13F0010F6C
:10071000FBD0084A136A43F09B7343F4803313629F
:10072000704704490B6A044A1A40044B13430B6296
:10073000704700BF00040E40FCFFC8FE02003701F6
:10074000024B986E00F48030704700BF00040E40EA
:100750004FF00052014B9A62704700BF00040E40F8
:10076000024B986E00F00200704700BF00040E407C
:1007700022281ED81F280CD8114B9A6901238340C8
:10078000934318D0012303FA00F00D4B18610020A9
:10079000704720380A4BD3F8082101238340934344
:1007A0000BD0012303FA00F0054BC3F80001002031
:1007B000704701207047002070470020704700BF3D
:1007C00000040E4010B4AC2303600B684A68B3FB0E
:1007D000F2F31B095C1E4FF6FE7294420BD80362C3
:1007E0008B68436040F20223C0F82031502303603D
:1007F000002010BC70470120FBE7436913F0020F93
:100800001ABFC161002001207047436913F0010F36
:100810001DBF83690B70002001207047FEE70000B8
:1008200008B5214B214A9A4228D9214B1E4A9A42A7
:100830000CD2013B9B1A23F00303043313441B49DE
:1008400051F8040B42F8040B9A42F9D100BF194B3E
:10085000194A9A420AD2013B9B1A23F0030304333C
:100860001344002142F8041B9A42FBD1134B144A53
:100870009A60144B9847144B9847FEE70A4B0B4A73
:100880009A42E3D20A4B0848181A1146043A024425
:100890000028DBD0C1F1040152F8040943F8040D2B
:1008A000CA42F9D1D2E700BF00000020A00C4000EE
:1008B00044040020FC0400204404002000ED00E07B
:1008C00000004000090B4000AD0A40003C4B1B6B90
:1008D00003F00303032B0ED8DFE803F0021C3838C3
:1008E000384B5B6913F0800F14BF4FF400424FF494
:1008F000FA42354B1A60324B1B6B03F07003702BBE
:1009000055D02F4B1A6B3049C2F302120B68D340FB
:100910000B6070472A4B1B6A13F0807F03D02B4A71
:10092000294B1A60E7E72A4A274B1A60244B1B6AB7
:1009300003F07003102B05D0202BDCD1234A224B6F
:100940001A60D8E7234A204B1A60D4E71C4B1B6A75
:1009500013F0807F18D01D4A1B4B1A60184B1B6B7D
:1009600003F00303022B164A07BF916A926AD16A09
:10097000D26A1548C1F30A41036801FB0333D2B2BE
:10098000B3FBF2F30360B6E7114A0F4B1A600C4B4E
:100990001B6A03F07003102B05D0202BDED10B4A0D
:1009A000094B1A60DAE70B4A074B1A60D6E7064A8A
:1009B00013680949A1FB03135B081360704700BF6C
:1009C00000040E4010140E4000000020001BB70071
:1009D00000093D0000127A00ABAAAAAA1A4B98425D
:1009E00014D91A4B984219D9194B98421DD9194B51
:1009F000984221D9184B984294BF4FF00423174BCB
:100A0000174A136002F50072136070474FF080635D
:100A1000134A136002F5007213607047114B104ABD
:100A2000136002F50072136070470F4B0C4A13609D
:100A300002F50072136070470C4B094A136002F50F
:100A400000721360704700BFFF2C3101FF59620232
:100A5000FF869303FFB3C404FFE0F505000500041F
:100A6000000A0E400001000400020004000300041C
:100A700000B585B0084B0193084B1A6802929B6839
:100A800003930820064B984701A90648064B984750
:100A900005B05DF804FB00BF000E2707040000202E
:100AA0007107400000060E40C507400080B582B0C7
:100AB0000F4B98470F4B98470F4B98470F4E4125C8
:100AC0000F4C29463046A0470028FAD10B4C0D4F59
:100AD0000B4E0DF107012046B8470028F9D19DF8CB
:100AE000075029462046B0470028FAD1F1E700BF59
:100AF000390140009D014000710A400000060E408F
:100B0000FB0740000B08400070B50F4E0F4D761BE1
:100B1000B61018BF002405D0013455F8043B98479F
:100B2000A642F9D10A4E0B4D761B00F0A7F8B6107D
:100B300018BF002406D0013455F8043B9847A6425C
:100B4000F9D170BD70BD00BF880C4000880C40001A
:100B5000900C4000880C4000024B13B1024800F09A
:100B600005B8704700000000790B400000230146E3
:100B70001A46184600F01EB838B50A4C0A4D641BD8
:100B8000A4100AD004F18043013B05EB8305013C2E
:100B900055F804399847002CF9D1BDE8384000F0E9
:100BA00077B800BFA00C40009C0C4000704700BF0D
:100BB000704700BF2DE9F8432C4D0646286898463B
:100BC0000F469146FFF7F2FF294B1C68D4F84831D5
:100BD000002B3ED05A681F2A1CDC02F1010E76B1B0
:100BE00003EB82010124C1F88890D3F88801944076
:100BF0002043022EC3F88801C1F8088123D00232B5
:100C0000C3F804E0286843F82270FFF7D1FF002002
:100C1000BDE8F883174B0BB34FF4C870AFF30080F7
:100C20000346D8B1D4F848210260002141600A4649
:100C3000C4F848014FF0010EC0F88811C0F88C11BB
:100C4000002EDCD0CCE7D3F88C110C43C3F88C41D8
:100C5000D5E704F5A673C4F84831BBE72868FFF769
:100C6000A7FF4FF0FF30BDE8F88300BF400400202D
:100C7000780C40000000000018000020F8B500BF0C
:100C8000F8BC08BC9E467047590B4000F10040007C
:100C9000F8B500BFF8BC08BC9E467047CD004000C8
:100CA00000093D0000C20100C00000000008000073
:100CB000000000000000000000000000040300200D
:100CC0006C030020D403002000000000000000009E
:100CD0000000000000000000000000000000000014
:100CE0000000000000000000000000000000000004
:100CF00000000000000000000000000000000000F4
:100D000000000000000000000000000000000000E3
:100D100000000000000000000000000000000000D3
:100D200000000000000000000000000000000000C3
:100D300000000000000000000000000000000000B3
:100D400000000000000000000000000000000000A3
:100D50000000000000000000000000000000000093
:100D600001000000000000000E33CDAB34126DE630
:100D7000ECDE05000B000000000000000000000099
:100D80000000000000000000000000000000000063
:100D90000000000000000000000000000000000053
:100DA0000000000000000000000000000000000043
:100DB0000000000000000000000000000000000033
:0410E000D804002010
:04000005004008218E
:00000001FF
